{
  "contractName": "Auth",
  "abi": [
    {
      "anonymous": false,
      "inputs": [
        {
          "indexed": false,
          "internalType": "string",
          "name": "username",
          "type": "string"
        },
        {
          "indexed": false,
          "internalType": "string",
          "name": "role",
          "type": "string"
        }
      ],
      "name": "UserRegistered",
      "type": "event"
    },
    {
      "inputs": [
        {
          "internalType": "string",
          "name": "_username",
          "type": "string"
        },
        {
          "internalType": "bytes32",
          "name": "_passwordHash",
          "type": "bytes32"
        },
        {
          "internalType": "string",
          "name": "_privateShare",
          "type": "string"
        },
        {
          "internalType": "string",
          "name": "_role",
          "type": "string"
        }
      ],
      "name": "registerUser",
      "outputs": [],
      "stateMutability": "nonpayable",
      "type": "function"
    },
    {
      "inputs": [
        {
          "internalType": "string",
          "name": "_username",
          "type": "string"
        },
        {
          "internalType": "bytes32",
          "name": "_passwordHash",
          "type": "bytes32"
        },
        {
          "internalType": "string",
          "name": "_privateShare",
          "type": "string"
        }
      ],
      "name": "verifyUser",
      "outputs": [
        {
          "internalType": "bool",
          "name": "isValid",
          "type": "bool"
        },
        {
          "internalType": "string",
          "name": "role",
          "type": "string"
        }
      ],
      "stateMutability": "view",
      "type": "function",
      "constant": true
    }
  ],
  "bytecode": "0x608060405234801561001057600080fd5b50610ab0806100206000396000f3fe608060405234801561001057600080fd5b50600436106100365760003560e01c8063a73560dd1461003b578063e11221aa14610057575b600080fd5b6100556004803603810190610050919061070b565b610088565b005b610071600480360381019061006c91906107c6565b610202565b60405161007f9291906108f4565b60405180910390f35b6000846040516100989190610960565b908152602001604051809103902060040160009054906101000a900460ff16156100f7576040517f08c379a00000000000000000000000000000000000000000000000000000000081526004016100ee906109c3565b60405180910390fd5b6040518060a00160405280858152602001848152602001838152602001828152602001600115158152506000856040516101319190610960565b9081526020016040518091039020600082015181600001908051906020019061015b9291906104d8565b506020820151816001015560408201518160020190805190602001906101829291906104d8565b50606082015181600301908051906020019061019f9291906104d8565b5060808201518160040160006101000a81548160ff0219169083151502179055509050507f996d7324173609959370942b1ee1b743dc623b3d50459e66c1d55df55e5a9f3784826040516101f49291906109e3565b60405180910390a150505050565b60006060600080866040516102179190610960565b90815260200160405180910390206040518060a001604052908160008201805461024090610a49565b80601f016020809104026020016040519081016040528092919081815260200182805461026c90610a49565b80156102b95780601f1061028e576101008083540402835291602001916102b9565b820191906000526020600020905b81548152906001019060200180831161029c57829003601f168201915b50505050508152602001600182015481526020016002820180546102dc90610a49565b80601f016020809104026020016040519081016040528092919081815260200182805461030890610a49565b80156103555780601f1061032a57610100808354040283529160200191610355565b820191906000526020600020905b81548152906001019060200180831161033857829003601f168201915b5050505050815260200160038201805461036e90610a49565b80601f016020809104026020016040519081016040528092919081815260200182805461039a90610a49565b80156103e75780601f106103bc576101008083540402835291602001916103e7565b820191906000526020600020905b8154815290600101906020018083116103ca57829003601f168201915b505050505081526020016004820160009054906101000a900460ff161515151581525050905080608001516104325760006040518060200160405280600081525092509250506104d0565b60008582602001511490506000856040516020016104509190610960565b60405160208183030381529060405280519060200120836040015160405160200161047b9190610960565b6040516020818303038152906040528051906020012014905081801561049e5750805b156104b65760018360600151945094505050506104d0565b600060405180602001604052806000815250945094505050505b935093915050565b8280546104e490610a49565b90600052602060002090601f016020900481019282610506576000855561054d565b82601f1061051f57805160ff191683800117855561054d565b8280016001018555821561054d579182015b8281111561054c578251825591602001919060010190610531565b5b50905061055a919061055e565b5090565b5b8082111561057757600081600090555060010161055f565b5090565b6000604051905090565b600080fd5b600080fd5b600080fd5b600080fd5b6000601f19601f8301169050919050565b7f4e487b7100000000000000000000000000000000000000000000000000000000600052604160045260246000fd5b6105e282610599565b810181811067ffffffffffffffff82111715610601576106006105aa565b5b80604052505050565b600061061461057b565b905061062082826105d9565b919050565b600067ffffffffffffffff8211156106405761063f6105aa565b5b61064982610599565b9050602081019050919050565b82818337600083830152505050565b600061067861067384610625565b61060a565b90508281526020810184848401111561069457610693610594565b5b61069f848285610656565b509392505050565b600082601f8301126106bc576106bb61058f565b5b81356106cc848260208601610665565b91505092915050565b6000819050919050565b6106e8816106d5565b81146106f357600080fd5b50565b600081359050610705816106df565b92915050565b6000806000806080858703121561072557610724610585565b5b600085013567ffffffffffffffff8111156107435761074261058a565b5b61074f878288016106a7565b9450506020610760878288016106f6565b935050604085013567ffffffffffffffff8111156107815761078061058a565b5b61078d878288016106a7565b925050606085013567ffffffffffffffff8111156107ae576107ad61058a565b5b6107ba878288016106a7565b91505092959194509250565b6000806000606084860312156107df576107de610585565b5b600084013567ffffffffffffffff8111156107fd576107fc61058a565b5b610809868287016106a7565b935050602061081a868287016106f6565b925050604084013567ffffffffffffffff81111561083b5761083a61058a565b5b610847868287016106a7565b9150509250925092565b60008115159050919050565b61086681610851565b82525050565b600081519050919050565b600082825260208201905092915050565b60005b838110156108a657808201518184015260208101905061088b565b838111156108b5576000848401525b50505050565b60006108c68261086c565b6108d08185610877565b93506108e0818560208601610888565b6108e981610599565b840191505092915050565b6000604082019050610909600083018561085d565b818103602083015261091b81846108bb565b90509392505050565b600081905092915050565b600061093a8261086c565b6109448185610924565b9350610954818560208601610888565b80840191505092915050565b600061096c828461092f565b915081905092915050565b7f557365726e616d6520616c72656164792074616b656e00000000000000000000600082015250565b60006109ad601683610877565b91506109b882610977565b602082019050919050565b600060208201905081810360008301526109dc816109a0565b9050919050565b600060408201905081810360008301526109fd81856108bb565b90508181036020830152610a1181846108bb565b90509392505050565b7f4e487b7100000000000000000000000000000000000000000000000000000000600052602260045260246000fd5b60006002820490506001821680610a6157607f821691505b602082108103610a7457610a73610a1a565b5b5091905056fea2646970667358221220fb260b64a624192ba0f37a4405c2ea2f70b9eb1faa7c69ef728d5bb4f0b764e164736f6c634300080d0033",
  "immutableReferences": {},
  "source": "// SPDX-License-Identifier: MIT\npragma solidity ^0.8.0;\n\ncontract Auth {\n    struct User {\n        string username;\n        bytes32 passwordHash;\n        string privateShare;\n        string role;\n        bool exists;\n    }\n    \n    mapping(string => User) private users;\n    \n    event UserRegistered(string username, string role);\n    \n    function registerUser(\n        string memory _username,\n        bytes32 _passwordHash,\n        string memory _privateShare,\n        string memory _role\n    ) public {\n        require(!users[_username].exists, \"Username already taken\");\n        \n        users[_username] = User({\n            username: _username,\n            passwordHash: _passwordHash,\n            privateShare: _privateShare,\n            role: _role,\n            exists: true\n        });\n        \n        emit UserRegistered(_username, _role);\n    }\n    \n    function verifyUser(\n        string memory _username,\n        bytes32 _passwordHash,\n        string memory _privateShare\n    ) public view returns (bool isValid, string memory role) {\n        User memory user = users[_username];\n        \n        if (!user.exists) {\n            return (false, \"\");\n        }\n        \n        // Compare password hash and private share\n        bool passwordMatch = user.passwordHash == _passwordHash;\n        bool shareMatch = keccak256(abi.encodePacked(user.privateShare)) == \n                         keccak256(abi.encodePacked(_privateShare));\n        \n        if (passwordMatch && shareMatch) {\n            return (true, user.role);\n        }\n        \n        return (false, \"\");\n    }\n}",
  "sourcePath": "/Users/sushmitha/supp/blockchain-auth-app/contracts/Auth.sol",
  "compiler": {
    "name": "solc",
    "version": "0.8.13+commit.abaa5c0e.Emscripten.clang"
  },
  "schemaVersion": "3.4.16",
  "updatedAt": "2025-04-05T20:56:34.133Z",
  "networkType": "ethereum",
  "devdoc": {
    "kind": "dev",
    "methods": {},
    "version": 1
  },
  "userdoc": {
    "kind": "user",
    "methods": {},
    "version": 1
  }
}